{
    "txid": "134f4f74abb354c7e402004e0c4e01c1aa85b10632e5ac26209cb4d695a4a2b8",
    "hash": "134f4f74abb354c7e402004e0c4e01c1aa85b10632e5ac26209cb4d695a4a2b8",
    "version": 1,
    "size": 258,
    "vsize": 258,
    "weight": 1032,
    "locktime": 0,
    "vin": [
        {
            "txid": "55c730087e65259d162557ce04932d7b51009534d686151bcfaebedd503f482a",
            "vout": 0,
            "scriptSig": {
                "asm": "304502205ca7c70821d2e309d1eff2aba8ab1362eac870a535a534a482500d3eba9eef18022100a7a4dd346dfd30d2803abe9aa17744f02e02964b98738b15a381a6fc30acdef5[ALL] 04d6597d465408e6e11264c116dd98b539740e802dc756d7eb88741696e20dfe7d3588695d2e7ad23cbf0aa056d42afada63036d66a1d9b97070dd6bc0c87ceb0d",
                "hex": "48304502205ca7c70821d2e309d1eff2aba8ab1362eac870a535a534a482500d3eba9eef18022100a7a4dd346dfd30d2803abe9aa17744f02e02964b98738b15a381a6fc30acdef5014104d6597d465408e6e11264c116dd98b539740e802dc756d7eb88741696e20dfe7d3588695d2e7ad23cbf0aa056d42afada63036d66a1d9b97070dd6bc0c87ceb0d"
            },
            "sequence": 4294967295
        }
    ],
    "vout": [
        {
            "value": "4000.00000000",
            "n": 0,
            "scriptPubKey": {
                "asm": "OP_DUP OP_HASH160 666a5bcac99eb29e521abcf864bd08617c8cc2c2 OP_EQUALVERIFY OP_CHECKSIG",
                "desc": "addr(1ALXLVNj7yKRU2Yki3K3yQGB5TBPof7jyo)#8qqn7pja",
                "hex": "76a914666a5bcac99eb29e521abcf864bd08617c8cc2c288ac",
                "address": "1ALXLVNj7yKRU2Yki3K3yQGB5TBPof7jyo",
                "type": "pubkeyhash"
            }
        },
        {
            "value": "5000.00000000",
            "n": 1,
            "scriptPubKey": {
                "asm": "OP_DUP OP_HASH160 2cbcceff99a7a3a34e230b9ba6f1020e6de87144 OP_EQUALVERIFY OP_CHECKSIG",
                "desc": "addr(155Yv6Hmzs5RT8j6uZAzfWzecvV9FDyu6k)#c3ghc8yk",
                "hex": "76a9142cbcceff99a7a3a34e230b9ba6f1020e6de8714488ac",
                "address": "155Yv6Hmzs5RT8j6uZAzfWzecvV9FDyu6k",
                "type": "pubkeyhash"
            }
        }
    ],
    "hex": "01000000012a483f50ddbeaecf1b1586d6349500517b2d9304ce5725169d25657e0830c755000000008b48304502205ca7c70821d2e309d1eff2aba8ab1362eac870a535a534a482500d3eba9eef18022100a7a4dd346dfd30d2803abe9aa17744f02e02964b98738b15a381a6fc30acdef5014104d6597d465408e6e11264c116dd98b539740e802dc756d7eb88741696e20dfe7d3588695d2e7ad23cbf0aa056d42afada63036d66a1d9b97070dd6bc0c87ceb0dffffffff0200a0db215d0000001976a914666a5bcac99eb29e521abcf864bd08617c8cc2c288ac0088526a740000001976a9142cbcceff99a7a3a34e230b9ba6f1020e6de8714488ac00000000",
    "blockhash": "00000000008d3d28164abbad184cc4f0e09b1bd95bf2f5b1e9062ca9d3f9c9b6",
    "confirmations": 764236,
    "time": 1280014523,
    "blocktime": 1280014523
}