{
    "txid": "3f6ea35d67194100d3362562d21673b94c358391e1d6700b4dad09e47f951d87",
    "details": {
        "txid": "3f6ea35d67194100d3362562d21673b94c358391e1d6700b4dad09e47f951d87",
        "hash": "3f6ea35d67194100d3362562d21673b94c358391e1d6700b4dad09e47f951d87",
        "version": 1,
        "size": 193,
        "vsize": 193,
        "weight": 772,
        "locktime": 0,
        "vin": [
            {
                "txid": "285d3d7be87a46b04732c5454215e557d46efc5330ddcecda119e279329a12a0",
                "vout": 0,
                "scriptSig": {
                    "asm": "3046022100a2c15b0450ecab0e6046f70b035632e6bed152214b17886716f8bee2ad5bd2fa022100c7827355697918f40b89e89947b7795419cd9a1998d0fbed348b841b533117e4[ALL]",
                    "hex": "493046022100a2c15b0450ecab0e6046f70b035632e6bed152214b17886716f8bee2ad5bd2fa022100c7827355697918f40b89e89947b7795419cd9a1998d0fbed348b841b533117e401"
                },
                "sequence": 4294967295
            }
        ],
        "vout": [
            {
                "value": "49.00000000",
                "n": 0,
                "scriptPubKey": {
                    "asm": "OP_DUP OP_HASH160 2686198d115149ca0d10cdb347fea7026678f086 OP_EQUALVERIFY OP_CHECKSIG",
                    "desc": "addr(14WhKi3R7uWc5oZNtiMzgiSVHYLVs8TqMq)#4pznxanq",
                    "hex": "76a9142686198d115149ca0d10cdb347fea7026678f08688ac",
                    "address": "14WhKi3R7uWc5oZNtiMzgiSVHYLVs8TqMq",
                    "type": "pubkeyhash"
                }
            },
            {
                "value": "1.00000000",
                "n": 1,
                "scriptPubKey": {
                    "asm": "OP_DUP OP_HASH160 2cbcceff99a7a3a34e230b9ba6f1020e6de87144 OP_EQUALVERIFY OP_CHECKSIG",
                    "desc": "addr(155Yv6Hmzs5RT8j6uZAzfWzecvV9FDyu6k)#c3ghc8yk",
                    "hex": "76a9142cbcceff99a7a3a34e230b9ba6f1020e6de8714488ac",
                    "address": "155Yv6Hmzs5RT8j6uZAzfWzecvV9FDyu6k",
                    "type": "pubkeyhash"
                }
            }
        ],
        "hex": "0100000001a0129a3279e219a1cdcedd3053fc6ed457e5154245c53247b0467ae87b3d5d28000000004a493046022100a2c15b0450ecab0e6046f70b035632e6bed152214b17886716f8bee2ad5bd2fa022100c7827355697918f40b89e89947b7795419cd9a1998d0fbed348b841b533117e401ffffffff0200111024010000001976a9142686198d115149ca0d10cdb347fea7026678f08688ac00e1f505000000001976a9142cbcceff99a7a3a34e230b9ba6f1020e6de8714488ac00000000",
        "blockhash": "00000000009bfb890e3058a6c8cfacd1d812ec1bb6d0edc1a63e2d56903cd523",
        "confirmations": 764257,
        "time": 1280005302,
        "blocktime": 1280005302
    }
}