{
    "txid": "e67a0550848b7932d7796aeea16ab0e48a5cfe81c4e8cca2c5b03e0416850114",
    "hash": "e67a0550848b7932d7796aeea16ab0e48a5cfe81c4e8cca2c5b03e0416850114",
    "version": 1,
    "size": 4936,
    "vsize": 4936,
    "weight": 19744,
    "locktime": 0,
    "vin": [
        {
            "txid": "7d74a566c2f3c198cd18e4346c98fa34004c8d74442cf67c55b07b84011f5704",
            "vout": 1,
            "scriptSig": {
                "asm": "304402205b6017aa6eea4d5b7d6f0547b1795c566366a8e9f3a4796dc9a46f2a0d6df368022057c792841f04a78d4a8eb4ed69b7cea6910c09900b3e89a41606db799c90ef60[ALL] 0418ad4eb19feac21435c0d4c109d3a4ca214186b475c6e5c6c9788c307da20dc807f123af2c03a76c15547dfbbbf132f1c3aa945411a65add3354d63fb334acba",
                "hex": "47304402205b6017aa6eea4d5b7d6f0547b1795c566366a8e9f3a4796dc9a46f2a0d6df368022057c792841f04a78d4a8eb4ed69b7cea6910c09900b3e89a41606db799c90ef6001410418ad4eb19feac21435c0d4c109d3a4ca214186b475c6e5c6c9788c307da20dc807f123af2c03a76c15547dfbbbf132f1c3aa945411a65add3354d63fb334acba"
            },
            "sequence": 4294967295
        },
        {
            "txid": "2905ee62d8015d7a39a7784b242a3f822ce4fa6f5982cef90d9579991b2b2918",
            "vout": 0,
            "scriptSig": {
                "asm": "30450221008787dcb01749d28b0734fd89f4569067860403c6328453edc3ac1c680aee504302200a0b60837c8f22165f3a33c69f608bc0c086c2c209077cd952b7873a4cfc42a1[ALL] 040b51683b8a053daa800c88898f9ad1f81d769aa20204e5b96ecb4fd167aed02b89b36861d8683df439760974bccc12f9a7fec81aac18ef04cd9706009c1dabe5",
                "hex": "4830450221008787dcb01749d28b0734fd89f4569067860403c6328453edc3ac1c680aee504302200a0b60837c8f22165f3a33c69f608bc0c086c2c209077cd952b7873a4cfc42a10141040b51683b8a053daa800c88898f9ad1f81d769aa20204e5b96ecb4fd167aed02b89b36861d8683df439760974bccc12f9a7fec81aac18ef04cd9706009c1dabe5"
            },
            "sequence": 4294967295
        },
        {
            "txid": "5f0de7ee18cf554eef92c5ba1d8fe8dfe957c2586093c19b9106fc0a9adb0228",
            "vout": 0,
            "scriptSig": {
                "asm": "3045022100b8fb439ee7d3daac466d62b8286cea02db6ae6157d221ede3db73a73109787c9022070719bfb5aed1ed6250995f82642212dd288e5ab1dbbc3b734802d9d48767812[ALL] 04add8fd20b22ba0ff70c82e83a53774875b252e845a94a78d69a1f0bd456c5042c8bb113b695263857c86672eb4162d1caaf2a172af4b47db2098e6bf2b91a7cf",
                "hex": "483045022100b8fb439ee7d3daac466d62b8286cea02db6ae6157d221ede3db73a73109787c9022070719bfb5aed1ed6250995f82642212dd288e5ab1dbbc3b734802d9d48767812014104add8fd20b22ba0ff70c82e83a53774875b252e845a94a78d69a1f0bd456c5042c8bb113b695263857c86672eb4162d1caaf2a172af4b47db2098e6bf2b91a7cf"
            },
            "sequence": 4294967295
        },
        {
            "txid": "9a81cfd65f8f23113b8ff745ec86ac86e94830045b5baff50fb4fcad1464cc36",
            "vout": 0,
            "scriptSig": {
                "asm": "304602210082b3d97acc81bb1e234f6f965f30d7cf1e07d4d5c769592b3dadc9f61f529e23022100d6b9de6563f9403d0adee630079dd4523920ca95eae91f644277d030de981b9a[ALL] 04df3f59563682071bf5e66f27b9deba2103f08f987664db2f8f15a9db3c7105d9296ed8aed8cd05dbc2a3fc15bb3544e7c648334b8ef6c4e19590aebdad0f31d8",
                "hex": "49304602210082b3d97acc81bb1e234f6f965f30d7cf1e07d4d5c769592b3dadc9f61f529e23022100d6b9de6563f9403d0adee630079dd4523920ca95eae91f644277d030de981b9a014104df3f59563682071bf5e66f27b9deba2103f08f987664db2f8f15a9db3c7105d9296ed8aed8cd05dbc2a3fc15bb3544e7c648334b8ef6c4e19590aebdad0f31d8"
            },
            "sequence": 4294967295
        },
        {
            "txid": "e6ad92a0f84f13c87fa0fc8661b5f111b715d2c6e6150a23266b309ba46d094b",
            "vout": 0,
            "scriptSig": {
                "asm": "30460221009b6209e6e426ddff0a031bf96bed17e2a06bcb14f4f41dd16b9117ce0b4844f70221008416671b63d5de93c61703ab711e9cbacccd2b4d84adb314708136d3f249691c[ALL] 047030828edda2db2b725da8f1b464a334097aaef5b7cc1195a81d5da1390d04d7b0abdcd4c6d6de47e945f469e41a40f52cf6938e60922c617912ee54a08b8b99",
                "hex": "4930460221009b6209e6e426ddff0a031bf96bed17e2a06bcb14f4f41dd16b9117ce0b4844f70221008416671b63d5de93c61703ab711e9cbacccd2b4d84adb314708136d3f249691c0141047030828edda2db2b725da8f1b464a334097aaef5b7cc1195a81d5da1390d04d7b0abdcd4c6d6de47e945f469e41a40f52cf6938e60922c617912ee54a08b8b99"
            },
            "sequence": 4294967295
        },
        {
            "txid": "4b461150d5172183e4df62381b1955e92242bf5de4b993b22fbb2305e34c5055",
            "vout": 0,
            "scriptSig": {
                "asm": "30450221009bd20b2a18acfec63f0657c005c10d68c635fd370e0039adc13f1dd786a8ea32022031bab31112d0c81960583307fd57cb1351a2bc2c00b4d2ecc471d1365c19738a[ALL] 0491f2ed9d0cfc45b0d3aa0092eddbd50237bbbb685ba125baf0f5de8f349097f00345fa574caabea90b674d3b2ad79c8fb8fbdc55f40c8a12d3e36e2ea9266544",
                "hex": "4830450221009bd20b2a18acfec63f0657c005c10d68c635fd370e0039adc13f1dd786a8ea32022031bab31112d0c81960583307fd57cb1351a2bc2c00b4d2ecc471d1365c19738a01410491f2ed9d0cfc45b0d3aa0092eddbd50237bbbb685ba125baf0f5de8f349097f00345fa574caabea90b674d3b2ad79c8fb8fbdc55f40c8a12d3e36e2ea9266544"
            },
            "sequence": 4294967295
        },
        {
            "txid": "a0eeb100b024980a2771dc85427e31d1d0edf50a436e033eb5db5811104e625a",
            "vout": 0,
            "scriptSig": {
                "asm": "304502207bcc34153297ca27e0b244cfaa0df9c3d99f6e70ed5d948e901519ab7d4cde4c022100ae840178276e62620019f2268e036cbccd16fbc7a4ebee11a2e5f3c6e513845e[ALL] 0489b2f844e9b58129ac91570e247d9b8d243f298e58a74a7789081e94dad4d983523cc4bd49363e0801d270e1c7b062364394bb7a4e5cabdb67bae4317eb2cb0b",
                "hex": "48304502207bcc34153297ca27e0b244cfaa0df9c3d99f6e70ed5d948e901519ab7d4cde4c022100ae840178276e62620019f2268e036cbccd16fbc7a4ebee11a2e5f3c6e513845e01410489b2f844e9b58129ac91570e247d9b8d243f298e58a74a7789081e94dad4d983523cc4bd49363e0801d270e1c7b062364394bb7a4e5cabdb67bae4317eb2cb0b"
            },
            "sequence": 4294967295
        },
        {
            "txid": "185d47e82e20d4b11f389c9491f725698e9893ad787dbdc84b1f05714b3e2e60",
            "vout": 0,
            "scriptSig": {
                "asm": "30450220669c3e86bcaabb74cca59e1d5ee0f60f1698bb60a13aaa3971cfe8ef9119720b02210094e4d6f5c2a29ce3875e7b7786626e53ab94e4ffc0bde0dfc5daf1aa7574796e[ALL] 040147fd5cabcdea6c2ce0406cc9b746c565060f387b4c0b602fe36a991ab621a7523d889cdafc6ba6534a9f30e48334f528ae899ad6d65fce17d1ca65be2f2ce0",
                "hex": "4830450220669c3e86bcaabb74cca59e1d5ee0f60f1698bb60a13aaa3971cfe8ef9119720b02210094e4d6f5c2a29ce3875e7b7786626e53ab94e4ffc0bde0dfc5daf1aa7574796e0141040147fd5cabcdea6c2ce0406cc9b746c565060f387b4c0b602fe36a991ab621a7523d889cdafc6ba6534a9f30e48334f528ae899ad6d65fce17d1ca65be2f2ce0"
            },
            "sequence": 4294967295
        },
        {
            "txid": "c4faec3e4aabfbbd9c1a57829919245fd52e9c84752a68ecd82d953bd064ef6d",
            "vout": 0,
            "scriptSig": {
                "asm": "3046022100cfba08763960eb869e89e902d7dee431676d535de330b8c60bff27cbec7d4a23022100db7c77006721ae1792469307c4d5bc57c0025d5bc1af29d86e4c24c742f604ed[ALL] 04f957acb238ebbb0e53c09ef17288a03cbee85d86f76d437da8e67d7301a401b6fa7252092c1875f22229ab1bc03c599dcc4c2c0125bb4635a27a6167445c6cdd",
                "hex": "493046022100cfba08763960eb869e89e902d7dee431676d535de330b8c60bff27cbec7d4a23022100db7c77006721ae1792469307c4d5bc57c0025d5bc1af29d86e4c24c742f604ed014104f957acb238ebbb0e53c09ef17288a03cbee85d86f76d437da8e67d7301a401b6fa7252092c1875f22229ab1bc03c599dcc4c2c0125bb4635a27a6167445c6cdd"
            },
            "sequence": 4294967295
        },
        {
            "txid": "a1c3828e0ea261570dacf96740f2a7b05ae444edc89c45479013355961e76279",
            "vout": 1,
            "scriptSig": {
                "asm": "304502210082c109283644975ce977272ec57219ac33c86fc2e1b9d5ee978b167279970cc602206aacf67c5e003f8930185855cb8ea339cabf1a3fbb1ef8fb255c2216f8bc5b74[ALL] 04ab9c9e243a1c643b867e28a4ef822f978687354c5ce6ba7aa3abf96fd1684dc08be97109338207f26ac3aed39c88c7c6a111387d0c8ac3b93fe9c6955d40ad2e",
                "hex": "48304502210082c109283644975ce977272ec57219ac33c86fc2e1b9d5ee978b167279970cc602206aacf67c5e003f8930185855cb8ea339cabf1a3fbb1ef8fb255c2216f8bc5b74014104ab9c9e243a1c643b867e28a4ef822f978687354c5ce6ba7aa3abf96fd1684dc08be97109338207f26ac3aed39c88c7c6a111387d0c8ac3b93fe9c6955d40ad2e"
            },
            "sequence": 4294967295
        },
        {
            "txid": "c42b32982f9899fc4e7661e3d865ccf61df7cea9b8cef9a78f12302eec7e707b",
            "vout": 1,
            "scriptSig": {
                "asm": "304402207d0efc118b1a88fd5bb65c13768ea72062a66e69f672b3ce9b071ba1bb19937202207b0d99e772e05df64b3e28535fcf249a24d84c0c08194c9d2b8b4dda4a3bc441[ALL] 041c72b06b433295706bacf2c23d91685c346b0c5e4bf0dd28937cdb0b48d23615668bd3d7a45e32867be4302cfb6e6c3ccf0697df56a9a7ff1af3bd5edb6b6f66",
                "hex": "47304402207d0efc118b1a88fd5bb65c13768ea72062a66e69f672b3ce9b071ba1bb19937202207b0d99e772e05df64b3e28535fcf249a24d84c0c08194c9d2b8b4dda4a3bc4410141041c72b06b433295706bacf2c23d91685c346b0c5e4bf0dd28937cdb0b48d23615668bd3d7a45e32867be4302cfb6e6c3ccf0697df56a9a7ff1af3bd5edb6b6f66"
            },
            "sequence": 4294967295
        },
        {
            "txid": "364c066200dd17c0e1047b2fbe0e3ebc57d9578210e98a63e8deb56db79c367f",
            "vout": 1,
            "scriptSig": {
                "asm": "3045022100ab6f1f7d9f092cc7c1c8cd640434270f81bea57550aee7bb3e5bd9340eecfdda02203ce1205f7e21cdc7dbf7513ff31b4806abc32fc5aae989ae4bfc0650a6438921[ALL] 04cb1da3d5a6aa7000c5d6f9efdef8f60818203fdc7e97afeb389a3f7e1e1c86cfec20dbbcab8d3032a0d9d4a9fa87a9be402731fcf919ac540630f8438bef255c",
                "hex": "483045022100ab6f1f7d9f092cc7c1c8cd640434270f81bea57550aee7bb3e5bd9340eecfdda02203ce1205f7e21cdc7dbf7513ff31b4806abc32fc5aae989ae4bfc0650a6438921014104cb1da3d5a6aa7000c5d6f9efdef8f60818203fdc7e97afeb389a3f7e1e1c86cfec20dbbcab8d3032a0d9d4a9fa87a9be402731fcf919ac540630f8438bef255c"
            },
            "sequence": 4294967295
        },
        {
            "txid": "98f14aa0fe2155e65324c3219082a21fcd0d07efbfbdceab787a5fcbb00a2581",
            "vout": 0,
            "scriptSig": {
                "asm": "304502207475ee22173fedb043b249044890c7c46ee61c2c0944d044c7a809d6d5f79874022100f7bbbf6a6c95d8f2caf3ca1fda8936403cc3b5554d50ee29489dd95429dff9d8[ALL] 0410032b8108cba0ed689b5b8cb240e8a29de859657a298108e53e144d5f7253f0353ea65265e82e0f30cd79f61ac2637618763d9a5b72b3f8bd372280319f9543",
                "hex": "48304502207475ee22173fedb043b249044890c7c46ee61c2c0944d044c7a809d6d5f79874022100f7bbbf6a6c95d8f2caf3ca1fda8936403cc3b5554d50ee29489dd95429dff9d801410410032b8108cba0ed689b5b8cb240e8a29de859657a298108e53e144d5f7253f0353ea65265e82e0f30cd79f61ac2637618763d9a5b72b3f8bd372280319f9543"
            },
            "sequence": 4294967295
        },
        {
            "txid": "1bcdb8729ad13422db2372553e4aef599fd2dafc16d230a8f003ce61f6629982",
            "vout": 1,
            "scriptSig": {
                "asm": "304602210095a5fe75e144e7d504947f4c3bac253d4294ee7a677fd563e05fb41db1d98803022100c0d8d5f028ecf15ca186c9c55f17404880522fef535bfdaa8bc968ca67f98fb7[ALL] 04c39463937b7a179ac2b26b7062bda7afef86b5ea1f074184ad3bdda70bd4ae591552c9dc9640d4e2e2c3e1bc14461bf134c0c86573238ddde938db601ac99e89",
                "hex": "49304602210095a5fe75e144e7d504947f4c3bac253d4294ee7a677fd563e05fb41db1d98803022100c0d8d5f028ecf15ca186c9c55f17404880522fef535bfdaa8bc968ca67f98fb7014104c39463937b7a179ac2b26b7062bda7afef86b5ea1f074184ad3bdda70bd4ae591552c9dc9640d4e2e2c3e1bc14461bf134c0c86573238ddde938db601ac99e89"
            },
            "sequence": 4294967295
        },
        {
            "txid": "23ad6f6a5e507769e38dc7771a186ba83ee6fd81d64e7bad0ca391d183835599",
            "vout": 1,
            "scriptSig": {
                "asm": "3045022100edd37af752aa992dca39f25315dcd86106f60adc6012673a018639c52e3717e9022036e06304889e1afcb46e50e0221229ee9e1b384f22d793a23e0281b0b6163963[ALL] 0458e9f0dcbce6261afeac215be0051e28bfad55a0c50d424f15fbafe39242bad1245c12685df5fec4dfd2c0f5de86fc6876a58943023f01b64439eebcf41c281d",
                "hex": "483045022100edd37af752aa992dca39f25315dcd86106f60adc6012673a018639c52e3717e9022036e06304889e1afcb46e50e0221229ee9e1b384f22d793a23e0281b0b616396301410458e9f0dcbce6261afeac215be0051e28bfad55a0c50d424f15fbafe39242bad1245c12685df5fec4dfd2c0f5de86fc6876a58943023f01b64439eebcf41c281d"
            },
            "sequence": 4294967295
        },
        {
            "txid": "248dd94c6ad5346d1c0452d7ae8381b4205cd8d133a2741de651a7b05deb83a1",
            "vout": 0,
            "scriptSig": {
                "asm": "3045022100ff1bc838afcb79b1e7e3ae513d23bad719865f5fe01b9a7615a049960210d6ce02204091e5cc1ced62872a25d67faf9c973183b21e443f0a77c02b8eb4ddc34bc204[ALL] 04dfc28f578379aeeb22bfe120560ace366f31f5193d661003bd17dfeafcd8ba84964ca4ba68e66649087de64b86bb5e2e3297df3546a188591b70c592d1a5e394",
                "hex": "483045022100ff1bc838afcb79b1e7e3ae513d23bad719865f5fe01b9a7615a049960210d6ce02204091e5cc1ced62872a25d67faf9c973183b21e443f0a77c02b8eb4ddc34bc204014104dfc28f578379aeeb22bfe120560ace366f31f5193d661003bd17dfeafcd8ba84964ca4ba68e66649087de64b86bb5e2e3297df3546a188591b70c592d1a5e394"
            },
            "sequence": 4294967295
        },
        {
            "txid": "09f5f614b40ef274ba1cde686f147f60c22f4842ce3e90f387ad8dfd30983fb0",
            "vout": 0,
            "scriptSig": {
                "asm": "304402203157777f615811f55921cf0768f95aea034a89f673438f6c7479e9936999d03002202e1c13c67cfeff91999491be24953154eb9d5f77fa36a1bd749f17bea96b8907[ALL] 04d13a83eb84feaf49d0f98e47e38bfcafef0c82d50da3dea24bb19a55954c326c49de0d08a6ace64016bbf915853332398eebf8bffe2251c1b31ce0be4836c118",
                "hex": "47304402203157777f615811f55921cf0768f95aea034a89f673438f6c7479e9936999d03002202e1c13c67cfeff91999491be24953154eb9d5f77fa36a1bd749f17bea96b8907014104d13a83eb84feaf49d0f98e47e38bfcafef0c82d50da3dea24bb19a55954c326c49de0d08a6ace64016bbf915853332398eebf8bffe2251c1b31ce0be4836c118"
            },
            "sequence": 4294967295
        },
        {
            "txid": "ea296b8375bfee6cbaaa0c687e83d60c36b62049df0ccb259e0f92551a3980b0",
            "vout": 0,
            "scriptSig": {
                "asm": "304502201979f02669eed88401d3dafa29dd5101b9de85ffa038f67cd2c96c9adbdb542b022100fbee6ade0a5dc83841cfe921f1c5b28ade388a999a8426463e9a6d33c450930c[ALL] 041f481dc29eee8e7866e24391adb0c4530b304d67d989c497d51e84ad6f815e736ca9f38de4c97e2b9d7cb04e11081792fcc789929529817061b346e75c632d39",
                "hex": "48304502201979f02669eed88401d3dafa29dd5101b9de85ffa038f67cd2c96c9adbdb542b022100fbee6ade0a5dc83841cfe921f1c5b28ade388a999a8426463e9a6d33c450930c0141041f481dc29eee8e7866e24391adb0c4530b304d67d989c497d51e84ad6f815e736ca9f38de4c97e2b9d7cb04e11081792fcc789929529817061b346e75c632d39"
            },
            "sequence": 4294967295
        },
        {
            "txid": "b5337b46a1c5e5001629c8e954c720b747cb7d367c3d3d4f8bbe48f2ddfb0fbf",
            "vout": 1,
            "scriptSig": {
                "asm": "304402207f8ed65630e584bf66bf6a8c5ee5529fe8fa1b9a886cc9f26b3b63c0ebfb6f830220455b2c556120ccc2b029c081048f4cb2a36961fd0f481ac37c3b5c17a8c1dfd6[ALL] 04a94c0e987bc6f551d3e326c53973b91d102a7ac9aff36fbb128299354b6984d771d32d91e44db3107b08e08495e83345d3cacb45e51fd3a3831314ce1274c218",
                "hex": "47304402207f8ed65630e584bf66bf6a8c5ee5529fe8fa1b9a886cc9f26b3b63c0ebfb6f830220455b2c556120ccc2b029c081048f4cb2a36961fd0f481ac37c3b5c17a8c1dfd6014104a94c0e987bc6f551d3e326c53973b91d102a7ac9aff36fbb128299354b6984d771d32d91e44db3107b08e08495e83345d3cacb45e51fd3a3831314ce1274c218"
            },
            "sequence": 4294967295
        },
        {
            "txid": "0c1248623dc3f5e56ec8d649d62dcda660b7bdff0a3967077bc98b5ccccaa2cf",
            "vout": 0,
            "scriptSig": {
                "asm": "3044022026d466b9aad97c1964d06d00b432aeeb39ef01c2376217f27a0e025e863d849802202045d3842217d3cdb4be613fb7ebce603cdf00bbc281d5adcdf7e7d70bdf0305[ALL] 04a1fe494ecfcabf3731b1cdefd5554716aa2f30e3f93b179a1638033b351855305a54a44ebf46a7d1fccca56643d4d51b8fdf6fe4ace31f3b9273a7a99105edb8",
                "hex": "473044022026d466b9aad97c1964d06d00b432aeeb39ef01c2376217f27a0e025e863d849802202045d3842217d3cdb4be613fb7ebce603cdf00bbc281d5adcdf7e7d70bdf0305014104a1fe494ecfcabf3731b1cdefd5554716aa2f30e3f93b179a1638033b351855305a54a44ebf46a7d1fccca56643d4d51b8fdf6fe4ace31f3b9273a7a99105edb8"
            },
            "sequence": 4294967295
        },
        {
            "txid": "acce13493669314306edbff11fbb803902e99dfcedb142293a4b5c672029ccd5",
            "vout": 0,
            "scriptSig": {
                "asm": "3044022006a97dad7843dba5ffa2d5679e52b0e11e97f839bf3554f57c7b26c48e7d1e8c022045cc48019b8c615ba891e7156b7951fc06659d259a709125032c803e7ff8e94f[ALL] 04fe27aff82a31c4f840942b4ee712e27cd1b477d6fbd22aaeac66d424292ade83093ffa42e88ba32074717828068425ae601a9819fa0e3ac716952e36f83d1d13",
                "hex": "473044022006a97dad7843dba5ffa2d5679e52b0e11e97f839bf3554f57c7b26c48e7d1e8c022045cc48019b8c615ba891e7156b7951fc06659d259a709125032c803e7ff8e94f014104fe27aff82a31c4f840942b4ee712e27cd1b477d6fbd22aaeac66d424292ade83093ffa42e88ba32074717828068425ae601a9819fa0e3ac716952e36f83d1d13"
            },
            "sequence": 4294967295
        },
        {
            "txid": "7017642ca7bdf56b8c03fe84fc578e59835b0f2b36a7ec514bcc49648a8fc9d8",
            "vout": 0,
            "scriptSig": {
                "asm": "304402202c1fb39524d2f137a653fee627ccbd06cf208aba94415f5f1c766aba564a69990220061a0c1ef14012011754a33335334facf1eff9e539736349d770e1de872bfd5f[ALL] 04f05fb783ebb03a53ddaa4b6ab5f2ee52fb7073cc367fb9b8831f585beefbef3f8c09fac5f975dc1fee09d92fdfbfd778af71a03f6470a719aa8a3ca39c39a9b4",
                "hex": "47304402202c1fb39524d2f137a653fee627ccbd06cf208aba94415f5f1c766aba564a69990220061a0c1ef14012011754a33335334facf1eff9e539736349d770e1de872bfd5f014104f05fb783ebb03a53ddaa4b6ab5f2ee52fb7073cc367fb9b8831f585beefbef3f8c09fac5f975dc1fee09d92fdfbfd778af71a03f6470a719aa8a3ca39c39a9b4"
            },
            "sequence": 4294967295
        },
        {
            "txid": "dc4a41c09763f5c9951066e5e8ab6c3d90767f934fa0062209010be226add9d8",
            "vout": 0,
            "scriptSig": {
                "asm": "304602210091f7ecdb519aa5d905c60c5200d424e9755dcd5a75700bd5b5e64668244ae7af022100a3401358a0d8dd6f06669c0e6f751301a995f249ea319c88495cc64090e9fdef[ALL] 04d005237b5e4cd2a5ee4243231e5cebe2cf420e5aa6c93d4047f5786ff8cdeaa3ee9965d8407ad83bd0ca462ec6cc750eca90997dc1e3e5f7854f9bde9d85394a",
                "hex": "49304602210091f7ecdb519aa5d905c60c5200d424e9755dcd5a75700bd5b5e64668244ae7af022100a3401358a0d8dd6f06669c0e6f751301a995f249ea319c88495cc64090e9fdef014104d005237b5e4cd2a5ee4243231e5cebe2cf420e5aa6c93d4047f5786ff8cdeaa3ee9965d8407ad83bd0ca462ec6cc750eca90997dc1e3e5f7854f9bde9d85394a"
            },
            "sequence": 4294967295
        },
        {
            "txid": "42040549ac49dffcba3a12d1fef87f5d4f2ea882aba596f1f950bad606be34e1",
            "vout": 0,
            "scriptSig": {
                "asm": "30450220692cdd68c833f80358354294a11232531f5530809f61e32dc05460dcb7c66c90022100fdd3fe6ea2e0e495e334ab99a2e033663f5ab3727485794ad01926eb11e7c7a3[ALL] 04d25538985ab8503db4f1d6bbc0b303cc3dfbcf63b54ee27be1d82e25caea0eb1f7ec5bd53cc2f6dcfb3e2ff94b09a5c84b98fe8a5c74c26dec90028d40903303",
                "hex": "4830450220692cdd68c833f80358354294a11232531f5530809f61e32dc05460dcb7c66c90022100fdd3fe6ea2e0e495e334ab99a2e033663f5ab3727485794ad01926eb11e7c7a3014104d25538985ab8503db4f1d6bbc0b303cc3dfbcf63b54ee27be1d82e25caea0eb1f7ec5bd53cc2f6dcfb3e2ff94b09a5c84b98fe8a5c74c26dec90028d40903303"
            },
            "sequence": 4294967295
        },
        {
            "txid": "756a95ba337d5dab4ee32fb46071e6cdcd78a6dd3970f025b25daae7c67298e5",
            "vout": 0,
            "scriptSig": {
                "asm": "3046022100ce5143e8b636db1c288571f11a9e1699b03645f3d7feabe792847f2f02ffd758022100e971076879360a5466f4e8e2d5913a0845c3e7e7edcce70b1e3bc9805c06d0a1[ALL] 04cb36710a2ed66139373c294ee6c78eb6565a284c6a3c4d453bb2d85432098e26ebb77d83df56e93f52707a1c0656285c984efa1c30b6b19f532f1cdff6cf6a7c",
                "hex": "493046022100ce5143e8b636db1c288571f11a9e1699b03645f3d7feabe792847f2f02ffd758022100e971076879360a5466f4e8e2d5913a0845c3e7e7edcce70b1e3bc9805c06d0a1014104cb36710a2ed66139373c294ee6c78eb6565a284c6a3c4d453bb2d85432098e26ebb77d83df56e93f52707a1c0656285c984efa1c30b6b19f532f1cdff6cf6a7c"
            },
            "sequence": 4294967295
        },
        {
            "txid": "4eeb02a65ada35b36d65a024b1a402e648c278ac4c3b7609e748a75db0663aea",
            "vout": 0,
            "scriptSig": {
                "asm": "3045022100cf129a2bc57995cbab2681596434def1e99ce02100df76257a5251e2f9c57a9202203125df88544f1c1fce1dba4c4d28555d4a3ad4002ebd55cd8c024fa6c9058eea[ALL] 0449560f5c3d3101e26ed71c57e1e18d3e59fd2a31911301f2882498f3f2bfe95f4832718717e58695697b869b34265d06764f74d46a2b65f10181b59dc53bc6bf",
                "hex": "483045022100cf129a2bc57995cbab2681596434def1e99ce02100df76257a5251e2f9c57a9202203125df88544f1c1fce1dba4c4d28555d4a3ad4002ebd55cd8c024fa6c9058eea01410449560f5c3d3101e26ed71c57e1e18d3e59fd2a31911301f2882498f3f2bfe95f4832718717e58695697b869b34265d06764f74d46a2b65f10181b59dc53bc6bf"
            },
            "sequence": 4294967295
        },
        {
            "txid": "46ec391a35a0a06494b5026feca98178a69d1e590407a2ad6f2692aa5f13adfa",
            "vout": 0,
            "scriptSig": {
                "asm": "304402207c4403a474dcc27ca86980078af063716447c2f2ae97fbbf5bc5bb584517dd98022016e858fe19c7411d22a2e5ff5e01b17b7b943453029a929224246812e83a9e2f[ALL] 04d3e88e8757092c693f8aa290529d84f79468255c27504f1bc3fefd43296183e142cd6226771b251475e54af81c5cc12b93f6a7712b6d73515211a53ddbe418cf",
                "hex": "47304402207c4403a474dcc27ca86980078af063716447c2f2ae97fbbf5bc5bb584517dd98022016e858fe19c7411d22a2e5ff5e01b17b7b943453029a929224246812e83a9e2f014104d3e88e8757092c693f8aa290529d84f79468255c27504f1bc3fefd43296183e142cd6226771b251475e54af81c5cc12b93f6a7712b6d73515211a53ddbe418cf"
            },
            "sequence": 4294967295
        }
    ],
    "vout": [
        {
            "value": "79956.00000000",
            "n": 0,
            "scriptPubKey": {
                "asm": "OP_DUP OP_HASH160 a0b0d60e5991578ed37cbda2b17d8b2ce23ab295 OP_EQUALVERIFY OP_CHECKSIG",
                "desc": "addr(1FeexV6bAHb8ybZjqQMjJrcCrHGW9sb6uF)#sx7ytsas",
                "hex": "76a914a0b0d60e5991578ed37cbda2b17d8b2ce23ab29588ac",
                "address": "1FeexV6bAHb8ybZjqQMjJrcCrHGW9sb6uF",
                "type": "pubkeyhash"
            }
        },
        {
            "value": "0.55000000",
            "n": 1,
            "scriptPubKey": {
                "asm": "OP_DUP OP_HASH160 a8ded2027430377eaa22c49a4a472322d7afd51e OP_EQUALVERIFY OP_CHECKSIG",
                "desc": "addr(1GPuT4JD1yKTEGnw2csTCqSAtS3DRiTD69)#08alg079",
                "hex": "76a914a8ded2027430377eaa22c49a4a472322d7afd51e88ac",
                "address": "1GPuT4JD1yKTEGnw2csTCqSAtS3DRiTD69",
                "type": "pubkeyhash"
            }
        }
    ],
    "hex": "010000001b04571f01847bb0557cf62c44748d4c0034fa986c34e418cd98c1f3c266a5747d010000008a47304402205b6017aa6eea4d5b7d6f0547b1795c566366a8e9f3a4796dc9a46f2a0d6df368022057c792841f04a78d4a8eb4ed69b7cea6910c09900b3e89a41606db799c90ef6001410418ad4eb19feac21435c0d4c109d3a4ca214186b475c6e5c6c9788c307da20dc807f123af2c03a76c15547dfbbbf132f1c3aa945411a65add3354d63fb334acbaffffffff18292b1b9979950df9ce82596ffae42c823f2a244b78a7397a5d01d862ee0529000000008b4830450221008787dcb01749d28b0734fd89f4569067860403c6328453edc3ac1c680aee504302200a0b60837c8f22165f3a33c69f608bc0c086c2c209077cd952b7873a4cfc42a10141040b51683b8a053daa800c88898f9ad1f81d769aa20204e5b96ecb4fd167aed02b89b36861d8683df439760974bccc12f9a7fec81aac18ef04cd9706009c1dabe5ffffffff2802db9a0afc06919bc1936058c257e9dfe88f1dbac592ef4e55cf18eee70d5f000000008b483045022100b8fb439ee7d3daac466d62b8286cea02db6ae6157d221ede3db73a73109787c9022070719bfb5aed1ed6250995f82642212dd288e5ab1dbbc3b734802d9d48767812014104add8fd20b22ba0ff70c82e83a53774875b252e845a94a78d69a1f0bd456c5042c8bb113b695263857c86672eb4162d1caaf2a172af4b47db2098e6bf2b91a7cfffffffff36cc6414adfcb40ff5af5b5b043048e986ac86ec45f78f3b11238f5fd6cf819a000000008c49304602210082b3d97acc81bb1e234f6f965f30d7cf1e07d4d5c769592b3dadc9f61f529e23022100d6b9de6563f9403d0adee630079dd4523920ca95eae91f644277d030de981b9a014104df3f59563682071bf5e66f27b9deba2103f08f987664db2f8f15a9db3c7105d9296ed8aed8cd05dbc2a3fc15bb3544e7c648334b8ef6c4e19590aebdad0f31d8ffffffff4b096da49b306b26230a15e6c6d215b711f1b56186fca07fc8134ff8a092ade6000000008c4930460221009b6209e6e426ddff0a031bf96bed17e2a06bcb14f4f41dd16b9117ce0b4844f70221008416671b63d5de93c61703ab711e9cbacccd2b4d84adb314708136d3f249691c0141047030828edda2db2b725da8f1b464a334097aaef5b7cc1195a81d5da1390d04d7b0abdcd4c6d6de47e945f469e41a40f52cf6938e60922c617912ee54a08b8b99ffffffff55504ce30523bb2fb293b9e45dbf4222e955191b3862dfe4832117d55011464b000000008b4830450221009bd20b2a18acfec63f0657c005c10d68c635fd370e0039adc13f1dd786a8ea32022031bab31112d0c81960583307fd57cb1351a2bc2c00b4d2ecc471d1365c19738a01410491f2ed9d0cfc45b0d3aa0092eddbd50237bbbb685ba125baf0f5de8f349097f00345fa574caabea90b674d3b2ad79c8fb8fbdc55f40c8a12d3e36e2ea9266544ffffffff5a624e101158dbb53e036e430af5edd0d1317e4285dc71270a9824b000b1eea0000000008b48304502207bcc34153297ca27e0b244cfaa0df9c3d99f6e70ed5d948e901519ab7d4cde4c022100ae840178276e62620019f2268e036cbccd16fbc7a4ebee11a2e5f3c6e513845e01410489b2f844e9b58129ac91570e247d9b8d243f298e58a74a7789081e94dad4d983523cc4bd49363e0801d270e1c7b062364394bb7a4e5cabdb67bae4317eb2cb0bffffffff602e3e4b71051f4bc8bd7d78ad93988e6925f791949c381fb1d4202ee8475d18000000008b4830450220669c3e86bcaabb74cca59e1d5ee0f60f1698bb60a13aaa3971cfe8ef9119720b02210094e4d6f5c2a29ce3875e7b7786626e53ab94e4ffc0bde0dfc5daf1aa7574796e0141040147fd5cabcdea6c2ce0406cc9b746c565060f387b4c0b602fe36a991ab621a7523d889cdafc6ba6534a9f30e48334f528ae899ad6d65fce17d1ca65be2f2ce0ffffffff6def64d03b952dd8ec682a75849c2ed55f24199982571a9cbdfbab4a3eecfac4000000008c493046022100cfba08763960eb869e89e902d7dee431676d535de330b8c60bff27cbec7d4a23022100db7c77006721ae1792469307c4d5bc57c0025d5bc1af29d86e4c24c742f604ed014104f957acb238ebbb0e53c09ef17288a03cbee85d86f76d437da8e67d7301a401b6fa7252092c1875f22229ab1bc03c599dcc4c2c0125bb4635a27a6167445c6cddffffffff7962e7615935139047459cc8ed44e45ab0a7f24067f9ac0d5761a20e8e82c3a1010000008b48304502210082c109283644975ce977272ec57219ac33c86fc2e1b9d5ee978b167279970cc602206aacf67c5e003f8930185855cb8ea339cabf1a3fbb1ef8fb255c2216f8bc5b74014104ab9c9e243a1c643b867e28a4ef822f978687354c5ce6ba7aa3abf96fd1684dc08be97109338207f26ac3aed39c88c7c6a111387d0c8ac3b93fe9c6955d40ad2effffffff7b707eec2e30128fa7f9ceb8a9cef71df6cc65d8e361764efc99982f98322bc4010000008a47304402207d0efc118b1a88fd5bb65c13768ea72062a66e69f672b3ce9b071ba1bb19937202207b0d99e772e05df64b3e28535fcf249a24d84c0c08194c9d2b8b4dda4a3bc4410141041c72b06b433295706bacf2c23d91685c346b0c5e4bf0dd28937cdb0b48d23615668bd3d7a45e32867be4302cfb6e6c3ccf0697df56a9a7ff1af3bd5edb6b6f66ffffffff7f369cb76db5dee8638ae9108257d957bc3e0ebe2f7b04e1c017dd0062064c36010000008b483045022100ab6f1f7d9f092cc7c1c8cd640434270f81bea57550aee7bb3e5bd9340eecfdda02203ce1205f7e21cdc7dbf7513ff31b4806abc32fc5aae989ae4bfc0650a6438921014104cb1da3d5a6aa7000c5d6f9efdef8f60818203fdc7e97afeb389a3f7e1e1c86cfec20dbbcab8d3032a0d9d4a9fa87a9be402731fcf919ac540630f8438bef255cffffffff81250ab0cb5f7a78abcebdbfef070dcd1fa2829021c32453e65521fea04af198000000008b48304502207475ee22173fedb043b249044890c7c46ee61c2c0944d044c7a809d6d5f79874022100f7bbbf6a6c95d8f2caf3ca1fda8936403cc3b5554d50ee29489dd95429dff9d801410410032b8108cba0ed689b5b8cb240e8a29de859657a298108e53e144d5f7253f0353ea65265e82e0f30cd79f61ac2637618763d9a5b72b3f8bd372280319f9543ffffffff829962f661ce03f0a830d216fcdad29f59ef4a3e557223db2234d19a72b8cd1b010000008c49304602210095a5fe75e144e7d504947f4c3bac253d4294ee7a677fd563e05fb41db1d98803022100c0d8d5f028ecf15ca186c9c55f17404880522fef535bfdaa8bc968ca67f98fb7014104c39463937b7a179ac2b26b7062bda7afef86b5ea1f074184ad3bdda70bd4ae591552c9dc9640d4e2e2c3e1bc14461bf134c0c86573238ddde938db601ac99e89ffffffff99558383d191a30cad7b4ed681fde63ea86b181a77c78de36977505e6a6fad23010000008b483045022100edd37af752aa992dca39f25315dcd86106f60adc6012673a018639c52e3717e9022036e06304889e1afcb46e50e0221229ee9e1b384f22d793a23e0281b0b616396301410458e9f0dcbce6261afeac215be0051e28bfad55a0c50d424f15fbafe39242bad1245c12685df5fec4dfd2c0f5de86fc6876a58943023f01b64439eebcf41c281dffffffffa183eb5db0a751e61d74a233d1d85c20b48183aed752041c6d34d56a4cd98d24000000008b483045022100ff1bc838afcb79b1e7e3ae513d23bad719865f5fe01b9a7615a049960210d6ce02204091e5cc1ced62872a25d67faf9c973183b21e443f0a77c02b8eb4ddc34bc204014104dfc28f578379aeeb22bfe120560ace366f31f5193d661003bd17dfeafcd8ba84964ca4ba68e66649087de64b86bb5e2e3297df3546a188591b70c592d1a5e394ffffffffb03f9830fd8dad87f3903ece42482fc2607f146f68de1cba74f20eb414f6f509000000008a47304402203157777f615811f55921cf0768f95aea034a89f673438f6c7479e9936999d03002202e1c13c67cfeff91999491be24953154eb9d5f77fa36a1bd749f17bea96b8907014104d13a83eb84feaf49d0f98e47e38bfcafef0c82d50da3dea24bb19a55954c326c49de0d08a6ace64016bbf915853332398eebf8bffe2251c1b31ce0be4836c118ffffffffb080391a55920f9e25cb0cdf4920b6360cd6837e680caaba6ceebf75836b29ea000000008b48304502201979f02669eed88401d3dafa29dd5101b9de85ffa038f67cd2c96c9adbdb542b022100fbee6ade0a5dc83841cfe921f1c5b28ade388a999a8426463e9a6d33c450930c0141041f481dc29eee8e7866e24391adb0c4530b304d67d989c497d51e84ad6f815e736ca9f38de4c97e2b9d7cb04e11081792fcc789929529817061b346e75c632d39ffffffffbf0ffbddf248be8b4f3d3d7c367dcb47b720c754e9c8291600e5c5a1467b33b5010000008a47304402207f8ed65630e584bf66bf6a8c5ee5529fe8fa1b9a886cc9f26b3b63c0ebfb6f830220455b2c556120ccc2b029c081048f4cb2a36961fd0f481ac37c3b5c17a8c1dfd6014104a94c0e987bc6f551d3e326c53973b91d102a7ac9aff36fbb128299354b6984d771d32d91e44db3107b08e08495e83345d3cacb45e51fd3a3831314ce1274c218ffffffffcfa2cacc5c8bc97b0767390affbdb760a6cd2dd649d6c86ee5f5c33d6248120c000000008a473044022026d466b9aad97c1964d06d00b432aeeb39ef01c2376217f27a0e025e863d849802202045d3842217d3cdb4be613fb7ebce603cdf00bbc281d5adcdf7e7d70bdf0305014104a1fe494ecfcabf3731b1cdefd5554716aa2f30e3f93b179a1638033b351855305a54a44ebf46a7d1fccca56643d4d51b8fdf6fe4ace31f3b9273a7a99105edb8ffffffffd5cc2920675c4b3a2942b1edfc9de9023980bb1ff1bfed06433169364913ceac000000008a473044022006a97dad7843dba5ffa2d5679e52b0e11e97f839bf3554f57c7b26c48e7d1e8c022045cc48019b8c615ba891e7156b7951fc06659d259a709125032c803e7ff8e94f014104fe27aff82a31c4f840942b4ee712e27cd1b477d6fbd22aaeac66d424292ade83093ffa42e88ba32074717828068425ae601a9819fa0e3ac716952e36f83d1d13ffffffffd8c98f8a6449cc4b51eca7362b0f5b83598e57fc84fe038c6bf5bda72c641770000000008a47304402202c1fb39524d2f137a653fee627ccbd06cf208aba94415f5f1c766aba564a69990220061a0c1ef14012011754a33335334facf1eff9e539736349d770e1de872bfd5f014104f05fb783ebb03a53ddaa4b6ab5f2ee52fb7073cc367fb9b8831f585beefbef3f8c09fac5f975dc1fee09d92fdfbfd778af71a03f6470a719aa8a3ca39c39a9b4ffffffffd8d9ad26e20b01092206a04f937f76903d6cabe8e5661095c9f56397c0414adc000000008c49304602210091f7ecdb519aa5d905c60c5200d424e9755dcd5a75700bd5b5e64668244ae7af022100a3401358a0d8dd6f06669c0e6f751301a995f249ea319c88495cc64090e9fdef014104d005237b5e4cd2a5ee4243231e5cebe2cf420e5aa6c93d4047f5786ff8cdeaa3ee9965d8407ad83bd0ca462ec6cc750eca90997dc1e3e5f7854f9bde9d85394affffffffe134be06d6ba50f9f196a5ab82a82e4f5d7ff8fed1123abafcdf49ac49050442000000008b4830450220692cdd68c833f80358354294a11232531f5530809f61e32dc05460dcb7c66c90022100fdd3fe6ea2e0e495e334ab99a2e033663f5ab3727485794ad01926eb11e7c7a3014104d25538985ab8503db4f1d6bbc0b303cc3dfbcf63b54ee27be1d82e25caea0eb1f7ec5bd53cc2f6dcfb3e2ff94b09a5c84b98fe8a5c74c26dec90028d40903303ffffffffe59872c6e7aa5db225f07039dda678cdcde67160b42fe34eab5d7d33ba956a75000000008c493046022100ce5143e8b636db1c288571f11a9e1699b03645f3d7feabe792847f2f02ffd758022100e971076879360a5466f4e8e2d5913a0845c3e7e7edcce70b1e3bc9805c06d0a1014104cb36710a2ed66139373c294ee6c78eb6565a284c6a3c4d453bb2d85432098e26ebb77d83df56e93f52707a1c0656285c984efa1c30b6b19f532f1cdff6cf6a7cffffffffea3a66b05da748e709763b4cac78c248e602a4b124a0656db335da5aa602eb4e000000008b483045022100cf129a2bc57995cbab2681596434def1e99ce02100df76257a5251e2f9c57a9202203125df88544f1c1fce1dba4c4d28555d4a3ad4002ebd55cd8c024fa6c9058eea01410449560f5c3d3101e26ed71c57e1e18d3e59fd2a31911301f2882498f3f2bfe95f4832718717e58695697b869b34265d06764f74d46a2b65f10181b59dc53bc6bffffffffffaad135faa92266fada20704591e9da67881a9ec6f02b59464a0a0351a39ec46000000008a47304402207c4403a474dcc27ca86980078af063716447c2f2ae97fbbf5bc5bb584517dd98022016e858fe19c7411d22a2e5ff5e01b17b7b943453029a929224246812e83a9e2f014104d3e88e8757092c693f8aa290529d84f79468255c27504f1bc3fefd43296183e142cd6226771b251475e54af81c5cc12b93f6a7712b6d73515211a53ddbe418cfffffffff0200d4e59e450700001976a914a0b0d60e5991578ed37cbda2b17d8b2ce23ab29588acc03b4703000000001976a914a8ded2027430377eaa22c49a4a472322d7afd51e88ac00000000",
    "blockhash": "000000000000707d2e9ca92afc4f7da01815a88e3221493eea751bfe271e2745",
    "confirmations": 723113,
    "time": 1298975179,
    "blocktime": 1298975179
}