{
    "txid": "02a7e1cd9ae421c9873381170c74fa1592014a3512ceb85192ac0fec6a2aa32f",
    "hash": "02a7e1cd9ae421c9873381170c74fa1592014a3512ceb85192ac0fec6a2aa32f",
    "version": 1,
    "size": 258,
    "vsize": 258,
    "weight": 1032,
    "locktime": 0,
    "vin": [
        {
            "txid": "68017c8092a19a2b5b1afd7756495661fdfad4350582bd9c32e2205610854468",
            "vout": 1,
            "scriptSig": {
                "asm": "3045022036a527d48e0b919fda50ffd412e7121e27827d65ede13187f8579bc011cf7581022100f2846fac00e0e7d037cc826e774dd0394585d49699554c580882bf0e8dd0a1bb[ALL] 042c222b70a0c81ddc9849ca68256e3fcf547a96bce8c6c361609a78b196fe65462ee58760f60aef6174b78139afec3de2e3e2d1dd4869881a36e05d0670912963",
                "hex": "483045022036a527d48e0b919fda50ffd412e7121e27827d65ede13187f8579bc011cf7581022100f2846fac00e0e7d037cc826e774dd0394585d49699554c580882bf0e8dd0a1bb0141042c222b70a0c81ddc9849ca68256e3fcf547a96bce8c6c361609a78b196fe65462ee58760f60aef6174b78139afec3de2e3e2d1dd4869881a36e05d0670912963"
            },
            "sequence": 4294967295
        }
    ],
    "vout": [
        {
            "value": "2.61000000",
            "n": 0,
            "scriptPubKey": {
                "asm": "OP_DUP OP_HASH160 dfbefe38e91cf6aee911332555ef10b71b33c4ab OP_EQUALVERIFY OP_CHECKSIG",
                "desc": "addr(1MQ4VD5u9LseWvDrwkz8VHh9y3yiDEwPsz)#vqv3wrau",
                "hex": "76a914dfbefe38e91cf6aee911332555ef10b71b33c4ab88ac",
                "address": "1MQ4VD5u9LseWvDrwkz8VHh9y3yiDEwPsz",
                "type": "pubkeyhash"
            }
        },
        {
            "value": "0.05000000",
            "n": 1,
            "scriptPubKey": {
                "asm": "OP_DUP OP_HASH160 c17b8e30c40a8d716e7efcf942b193e803714e7e OP_EQUALVERIFY OP_CHECKSIG",
                "desc": "addr(1Je3RohZT6mH1AofjcjMJXgbVgKrJNVohD)#pxums0ge",
                "hex": "76a914c17b8e30c40a8d716e7efcf942b193e803714e7e88ac",
                "address": "1Je3RohZT6mH1AofjcjMJXgbVgKrJNVohD",
                "type": "pubkeyhash"
            }
        }
    ],
    "hex": "0100000001684485105620e2329cbd820535d4fafd6156495677fd1a5b2b9aa192807c0168010000008b483045022036a527d48e0b919fda50ffd412e7121e27827d65ede13187f8579bc011cf7581022100f2846fac00e0e7d037cc826e774dd0394585d49699554c580882bf0e8dd0a1bb0141042c222b70a0c81ddc9849ca68256e3fcf547a96bce8c6c361609a78b196fe65462ee58760f60aef6174b78139afec3de2e3e2d1dd4869881a36e05d0670912963ffffffff02408b8e0f000000001976a914dfbefe38e91cf6aee911332555ef10b71b33c4ab88ac404b4c00000000001976a914c17b8e30c40a8d716e7efcf942b193e803714e7e88ac00000000",
    "blockhash": "00000000000054050b9f39f4d0c22ff4d2f9e5fe217800e37b6608a15dfb5a6e",
    "confirmations": 739515,
    "time": 1291158642,
    "blocktime": 1291158642
}