{
    "txid": "0565b3e9013fff3c80f022e8f63144f84a1672af385f5f092afe4bfb926679b8",
    "details": {
        "txid": "0565b3e9013fff3c80f022e8f63144f84a1672af385f5f092afe4bfb926679b8",
        "hash": "0565b3e9013fff3c80f022e8f63144f84a1672af385f5f092afe4bfb926679b8",
        "version": 1,
        "size": 257,
        "vsize": 257,
        "weight": 1028,
        "locktime": 0,
        "vin": [
            {
                "txid": "ba28b9cf90eb605b5f835c028f60d853698eb3b5c63ea665654c4b3da3821be0",
                "vout": 1,
                "scriptSig": {
                    "asm": "304402207a053e22e8390ba1752522dbbed14758408d63905ead267fbbaeb0423f73ca8b02204f0cdaccee1e7437b6e73bfa60fd4c6e042b8a790f53b197bdbece6932c2bea1[ALL] 045dfc70b8c17574e2c27df115fbf7f4cc7da3f5e380c08b203a347370336c3317ae395d940e788fde236c064b3ecdfab90825acd99f9d41664608a290f46d7b10",
                    "hex": "47304402207a053e22e8390ba1752522dbbed14758408d63905ead267fbbaeb0423f73ca8b02204f0cdaccee1e7437b6e73bfa60fd4c6e042b8a790f53b197bdbece6932c2bea10141045dfc70b8c17574e2c27df115fbf7f4cc7da3f5e380c08b203a347370336c3317ae395d940e788fde236c064b3ecdfab90825acd99f9d41664608a290f46d7b10"
                },
                "sequence": 4294967295
            }
        ],
        "vout": [
            {
                "value": "0.14000000",
                "n": 0,
                "scriptPubKey": {
                    "asm": "OP_DUP OP_HASH160 7f73d00ad053085c0a0f847d723a70c454929598 OP_EQUALVERIFY OP_CHECKSIG",
                    "desc": "addr(1CcuZAiTqHUFzSVVJ2mjwEnDKjejm7edUm)#kndgxg5h",
                    "hex": "76a9147f73d00ad053085c0a0f847d723a70c45492959888ac",
                    "address": "1CcuZAiTqHUFzSVVJ2mjwEnDKjejm7edUm",
                    "type": "pubkeyhash"
                }
            },
            {
                "value": "0.38000000",
                "n": 1,
                "scriptPubKey": {
                    "asm": "OP_DUP OP_HASH160 496bd247ed4bdcd6adbbb071416fc7bb60a2f0d1 OP_EQUALVERIFY OP_CHECKSIG",
                    "desc": "addr(17hDVZrnkQZVrnvN2geQSDVAhrsky2oD2a)#9uslsvgs",
                    "hex": "76a914496bd247ed4bdcd6adbbb071416fc7bb60a2f0d188ac",
                    "address": "17hDVZrnkQZVrnvN2geQSDVAhrsky2oD2a",
                    "type": "pubkeyhash"
                }
            }
        ],
        "hex": "0100000001e01b82a33d4b4c6565a63ec6b5b38e6953d8608f025c835f5b60eb90cfb928ba010000008a47304402207a053e22e8390ba1752522dbbed14758408d63905ead267fbbaeb0423f73ca8b02204f0cdaccee1e7437b6e73bfa60fd4c6e042b8a790f53b197bdbece6932c2bea10141045dfc70b8c17574e2c27df115fbf7f4cc7da3f5e380c08b203a347370336c3317ae395d940e788fde236c064b3ecdfab90825acd99f9d41664608a290f46d7b10ffffffff02809fd500000000001976a9147f73d00ad053085c0a0f847d723a70c45492959888ac80d54302000000001976a914496bd247ed4bdcd6adbbb071416fc7bb60a2f0d188ac00000000",
        "blockhash": "000000000000cd13a88f3144da0a9cc142cc0ca4edda618ee8cd0aae9eb6760b",
        "confirmations": 721737,
        "time": 1299526093,
        "blocktime": 1299526093
    }
}