{
    "txid": "08697a58dbfc1a1a05105b4f2e0df5e71a65d52bd87dfbbb8255775d58565388",
    "hash": "08697a58dbfc1a1a05105b4f2e0df5e71a65d52bd87dfbbb8255775d58565388",
    "version": 1,
    "size": 586,
    "vsize": 586,
    "weight": 2344,
    "locktime": 0,
    "vin": [
        {
            "txid": "63860a5919b5a23d53322ed705f762372491e2b05424c7b2639dc6838ad2b320",
            "vout": 0,
            "scriptSig": {
                "asm": "3045022033a5e975019624f275e278c12ad4d8acce8375eda9aee26146bed9f322da458b022100f927526db345cd4e483977ccdaa1ccc6a5d63c0a1414550e0e8f8bc16c3d66ac[ALL] 0444ac0a242656bfb929f58e4f8c65c86d00b77709e5d0209bb66acfe994b157aa9ee48da18dc2bee7e9da4d208ecc833b93b7f7d28ebf2a8c6f731b0d253eb8f0",
                "hex": "483045022033a5e975019624f275e278c12ad4d8acce8375eda9aee26146bed9f322da458b022100f927526db345cd4e483977ccdaa1ccc6a5d63c0a1414550e0e8f8bc16c3d66ac01410444ac0a242656bfb929f58e4f8c65c86d00b77709e5d0209bb66acfe994b157aa9ee48da18dc2bee7e9da4d208ecc833b93b7f7d28ebf2a8c6f731b0d253eb8f0"
            },
            "sequence": 4294967295
        },
        {
            "txid": "8160ee1ec0118dccbc41ce75b56054f6dbc4345160e1281259c162ac250fac7a",
            "vout": 0,
            "scriptSig": {
                "asm": "3046022100a115823b3792edbdddbda058140684bb7f0a46fb815046d3cfd30a22a658d9c602210092690ac475228f2152c6e9370afe28e68bc7e10e6a8d501b2452e3c187d8ba08[ALL] 0444ac0a242656bfb929f58e4f8c65c86d00b77709e5d0209bb66acfe994b157aa9ee48da18dc2bee7e9da4d208ecc833b93b7f7d28ebf2a8c6f731b0d253eb8f0",
                "hex": "493046022100a115823b3792edbdddbda058140684bb7f0a46fb815046d3cfd30a22a658d9c602210092690ac475228f2152c6e9370afe28e68bc7e10e6a8d501b2452e3c187d8ba0801410444ac0a242656bfb929f58e4f8c65c86d00b77709e5d0209bb66acfe994b157aa9ee48da18dc2bee7e9da4d208ecc833b93b7f7d28ebf2a8c6f731b0d253eb8f0"
            },
            "sequence": 4294967295
        },
        {
            "txid": "8810f1e9f9231a5bdc9f9010dadc52643884f55b33bf6146251c51650ee870b5",
            "vout": 0,
            "scriptSig": {
                "asm": "3046022100f29815d90f22d9c0299335aa7d8371fb5987bc7df38687a10f05f3f8433c2cdf022100bee46715618211f02e063e01cc52a836348e5448ef81f93ba9ad0ff6b64f01a2[ALL] 0444ac0a242656bfb929f58e4f8c65c86d00b77709e5d0209bb66acfe994b157aa9ee48da18dc2bee7e9da4d208ecc833b93b7f7d28ebf2a8c6f731b0d253eb8f0",
                "hex": "493046022100f29815d90f22d9c0299335aa7d8371fb5987bc7df38687a10f05f3f8433c2cdf022100bee46715618211f02e063e01cc52a836348e5448ef81f93ba9ad0ff6b64f01a201410444ac0a242656bfb929f58e4f8c65c86d00b77709e5d0209bb66acfe994b157aa9ee48da18dc2bee7e9da4d208ecc833b93b7f7d28ebf2a8c6f731b0d253eb8f0"
            },
            "sequence": 4294967295
        }
    ],
    "vout": [
        {
            "value": "0.24000000",
            "n": 0,
            "scriptPubKey": {
                "asm": "OP_DUP OP_HASH160 7f73d00ad053085c0a0f847d723a70c454929598 OP_EQUALVERIFY OP_CHECKSIG",
                "desc": "addr(1CcuZAiTqHUFzSVVJ2mjwEnDKjejm7edUm)#kndgxg5h",
                "hex": "76a9147f73d00ad053085c0a0f847d723a70c45492959888ac",
                "address": "1CcuZAiTqHUFzSVVJ2mjwEnDKjejm7edUm",
                "type": "pubkeyhash"
            }
        }
    ],
    "hex": "010000000320b3d28a83c69d63b2c72454b0e291243762f705d72e32533da2b519590a8663000000008b483045022033a5e975019624f275e278c12ad4d8acce8375eda9aee26146bed9f322da458b022100f927526db345cd4e483977ccdaa1ccc6a5d63c0a1414550e0e8f8bc16c3d66ac01410444ac0a242656bfb929f58e4f8c65c86d00b77709e5d0209bb66acfe994b157aa9ee48da18dc2bee7e9da4d208ecc833b93b7f7d28ebf2a8c6f731b0d253eb8f0ffffffff7aac0f25ac62c1591228e1605134c4dbf65460b575ce41bccc8d11c01eee6081000000008c493046022100a115823b3792edbdddbda058140684bb7f0a46fb815046d3cfd30a22a658d9c602210092690ac475228f2152c6e9370afe28e68bc7e10e6a8d501b2452e3c187d8ba0801410444ac0a242656bfb929f58e4f8c65c86d00b77709e5d0209bb66acfe994b157aa9ee48da18dc2bee7e9da4d208ecc833b93b7f7d28ebf2a8c6f731b0d253eb8f0ffffffffb570e80e65511c254661bf335bf584386452dcda10909fdc5b1a23f9e9f11088000000008c493046022100f29815d90f22d9c0299335aa7d8371fb5987bc7df38687a10f05f3f8433c2cdf022100bee46715618211f02e063e01cc52a836348e5448ef81f93ba9ad0ff6b64f01a201410444ac0a242656bfb929f58e4f8c65c86d00b77709e5d0209bb66acfe994b157aa9ee48da18dc2bee7e9da4d208ecc833b93b7f7d28ebf2a8c6f731b0d253eb8f0ffffffff0100366e01000000001976a9147f73d00ad053085c0a0f847d723a70c45492959888ac00000000",
    "blockhash": "000000000000401b18cee61c6ff67748ebc69bcce3de05d824edc24a3b69e4c8",
    "confirmations": 721585,
    "time": 1299593696,
    "blocktime": 1299593696
}