{
    "txid": "4a9a19516edb51839852c89b2fc01162612ea2881b0e470d332fc6a3b7e162f6",
    "hash": "4a9a19516edb51839852c89b2fc01162612ea2881b0e470d332fc6a3b7e162f6",
    "version": 1,
    "size": 259,
    "vsize": 259,
    "weight": 1036,
    "locktime": 0,
    "vin": [
        {
            "txid": "2b5b48dff63575a4547d33afd37a577c029465d7f88c38aef0227de1e4f19bbc",
            "vout": 0,
            "scriptSig": {
                "asm": "3046022100cd4bb0eed4ca80fdcf1bdbf462ead36de644b0eae3f97e8a9b19f63dc4a2bb47022100fc54c9fb82f6970a659152f4c09b7a3dcd010c20be1f296bc0cdf31f02512078[ALL] 045402518cb67b49673a1d360466b3c5bddc8686170a536d0bb557c802330cdd89255a44111930836539f715bca56069c1e1f84b77733b1012773f36a5f37c4a11",
                "hex": "493046022100cd4bb0eed4ca80fdcf1bdbf462ead36de644b0eae3f97e8a9b19f63dc4a2bb47022100fc54c9fb82f6970a659152f4c09b7a3dcd010c20be1f296bc0cdf31f025120780141045402518cb67b49673a1d360466b3c5bddc8686170a536d0bb557c802330cdd89255a44111930836539f715bca56069c1e1f84b77733b1012773f36a5f37c4a11"
            },
            "sequence": 4294967295
        }
    ],
    "vout": [
        {
            "value": "5.05000000",
            "n": 0,
            "scriptPubKey": {
                "asm": "OP_DUP OP_HASH160 7f73d00ad053085c0a0f847d723a70c454929598 OP_EQUALVERIFY OP_CHECKSIG",
                "desc": "addr(1CcuZAiTqHUFzSVVJ2mjwEnDKjejm7edUm)#kndgxg5h",
                "hex": "76a9147f73d00ad053085c0a0f847d723a70c45492959888ac",
                "address": "1CcuZAiTqHUFzSVVJ2mjwEnDKjejm7edUm",
                "type": "pubkeyhash"
            }
        },
        {
            "value": "988.62000000",
            "n": 1,
            "scriptPubKey": {
                "asm": "OP_DUP OP_HASH160 be3445bda776b9a0a50237ecbd110482bce4a7d6 OP_EQUALVERIFY OP_CHECKSIG",
                "desc": "addr(1JLi1QB6CkocNn8sRTxEiKs3WqoD1eQPTm)#u24zjamr",
                "hex": "76a914be3445bda776b9a0a50237ecbd110482bce4a7d688ac",
                "address": "1JLi1QB6CkocNn8sRTxEiKs3WqoD1eQPTm",
                "type": "pubkeyhash"
            }
        }
    ],
    "hex": "0100000001bc9bf1e4e17d22f0ae388cf8d76594027c577ad3af337d54a47535f6df485b2b000000008c493046022100cd4bb0eed4ca80fdcf1bdbf462ead36de644b0eae3f97e8a9b19f63dc4a2bb47022100fc54c9fb82f6970a659152f4c09b7a3dcd010c20be1f296bc0cdf31f025120780141045402518cb67b49673a1d360466b3c5bddc8686170a536d0bb557c802330cdd89255a44111930836539f715bca56069c1e1f84b77733b1012773f36a5f37c4a11ffffffff0240b0191e000000001976a9147f73d00ad053085c0a0f847d723a70c45492959888ac8067a204170000001976a914be3445bda776b9a0a50237ecbd110482bce4a7d688ac00000000",
    "blockhash": "000000000000284ad3bc20369e63f4dba7964e127346212c5db7df6aae02823f",
    "confirmations": 720888,
    "time": 1300038568,
    "blocktime": 1300038568
}