{
    "txid": "5c07d2316ae2e3089dc9c6856650ff77115a542338453b58e1bd63de36b54ac8",
    "hash": "5c07d2316ae2e3089dc9c6856650ff77115a542338453b58e1bd63de36b54ac8",
    "version": 1,
    "size": 259,
    "vsize": 259,
    "weight": 1036,
    "locktime": 0,
    "vin": [
        {
            "txid": "d7c295a05197931461549ca5562a10390314c0049be3ec56c70b0ab529dcb953",
            "vout": 1,
            "scriptSig": {
                "asm": "3046022100d4b391133178585cee1aec2dd7a54b04fb8837baec67aabee3f7853d6cb81d2d022100e53666faea13e05177bf829f35039674a6ab6d5896de7e7ee3540ca211fdfcae[ALL] 042fe8547c57549af0b335e3f34d3b30dabbd0a3483132778a516b352a7210bec61ed77ed89b179f62049a942b47accbe243efcc3f0feac55cec921abf9fccb0f6",
                "hex": "493046022100d4b391133178585cee1aec2dd7a54b04fb8837baec67aabee3f7853d6cb81d2d022100e53666faea13e05177bf829f35039674a6ab6d5896de7e7ee3540ca211fdfcae0141042fe8547c57549af0b335e3f34d3b30dabbd0a3483132778a516b352a7210bec61ed77ed89b179f62049a942b47accbe243efcc3f0feac55cec921abf9fccb0f6"
            },
            "sequence": 4294967295
        }
    ],
    "vout": [
        {
            "value": "17.38000000",
            "n": 0,
            "scriptPubKey": {
                "asm": "OP_DUP OP_HASH160 7f73d00ad053085c0a0f847d723a70c454929598 OP_EQUALVERIFY OP_CHECKSIG",
                "desc": "addr(1CcuZAiTqHUFzSVVJ2mjwEnDKjejm7edUm)#kndgxg5h",
                "hex": "76a9147f73d00ad053085c0a0f847d723a70c45492959888ac",
                "address": "1CcuZAiTqHUFzSVVJ2mjwEnDKjejm7edUm",
                "type": "pubkeyhash"
            }
        },
        {
            "value": "103.98000000",
            "n": 1,
            "scriptPubKey": {
                "asm": "OP_DUP OP_HASH160 57cf9bf03b32c73a6f74260152abf6aae0244233 OP_EQUALVERIFY OP_CHECKSIG",
                "desc": "addr(191JVdEo1EdRHnmcrYZtBdAhWngNn4ZugE)#g3c6q4rz",
                "hex": "76a91457cf9bf03b32c73a6f74260152abf6aae024423388ac",
                "address": "191JVdEo1EdRHnmcrYZtBdAhWngNn4ZugE",
                "type": "pubkeyhash"
            }
        }
    ],
    "hex": "010000000153b9dc29b50a0bc756ece39b04c0140339102a56a59c546114939751a095c2d7010000008c493046022100d4b391133178585cee1aec2dd7a54b04fb8837baec67aabee3f7853d6cb81d2d022100e53666faea13e05177bf829f35039674a6ab6d5896de7e7ee3540ca211fdfcae0141042fe8547c57549af0b335e3f34d3b30dabbd0a3483132778a516b352a7210bec61ed77ed89b179f62049a942b47accbe243efcc3f0feac55cec921abf9fccb0f6ffffffff0280c69767000000001976a9147f73d00ad053085c0a0f847d723a70c45492959888ac80e3c46b020000001976a91457cf9bf03b32c73a6f74260152abf6aae024423388ac00000000",
    "blockhash": "000000000000757e5a8edbacb9be65b06e2e472c0eeb76e84eada20fd51cda21",
    "confirmations": 717680,
    "time": 1301900640,
    "blocktime": 1301900640
}