{
    "txid": "7ec460c9bc8b0b5be9acc7abe43470067bd0a1b4d419f68e73293714ede08d5e",
    "hash": "7ec460c9bc8b0b5be9acc7abe43470067bd0a1b4d419f68e73293714ede08d5e",
    "version": 1,
    "size": 258,
    "vsize": 258,
    "weight": 1032,
    "locktime": 0,
    "vin": [
        {
            "txid": "56d3253d73460f5c4e269f3b136d8bc828f0259f019564b2c6ebd4ed6609abb9",
            "vout": 0,
            "scriptSig": {
                "asm": "3045022100e5edec9216094b32e1b0ee78519df8015f6c07ca443550eadb7fa182925b0b0f02202225490f00aedba378aa14867534ec1fe2d4120993b8a6cfed4eb2173eeb31c7[ALL] 047ae6f922d8c356f80a0ef0e82adfb5848cc93fa0d0caf6adbdf1833a34baa62c1777b4b2ccd86516c126ba11978fbb9f8d6fe7720964637319c67322e80c37aa",
                "hex": "483045022100e5edec9216094b32e1b0ee78519df8015f6c07ca443550eadb7fa182925b0b0f02202225490f00aedba378aa14867534ec1fe2d4120993b8a6cfed4eb2173eeb31c70141047ae6f922d8c356f80a0ef0e82adfb5848cc93fa0d0caf6adbdf1833a34baa62c1777b4b2ccd86516c126ba11978fbb9f8d6fe7720964637319c67322e80c37aa"
            },
            "sequence": 4294967295
        }
    ],
    "vout": [
        {
            "value": "3.93000000",
            "n": 0,
            "scriptPubKey": {
                "asm": "OP_DUP OP_HASH160 7f73d00ad053085c0a0f847d723a70c454929598 OP_EQUALVERIFY OP_CHECKSIG",
                "desc": "addr(1CcuZAiTqHUFzSVVJ2mjwEnDKjejm7edUm)#kndgxg5h",
                "hex": "76a9147f73d00ad053085c0a0f847d723a70c45492959888ac",
                "address": "1CcuZAiTqHUFzSVVJ2mjwEnDKjejm7edUm",
                "type": "pubkeyhash"
            }
        },
        {
            "value": "31.53000000",
            "n": 1,
            "scriptPubKey": {
                "asm": "OP_DUP OP_HASH160 149f06f8180d53ebb4f6485c967222ac03f6dfff OP_EQUALVERIFY OP_CHECKSIG",
                "desc": "addr(12t32F2M4VqrfG4DX3WxBXCCxvgLp5W5rG)#m62l65w9",
                "hex": "76a914149f06f8180d53ebb4f6485c967222ac03f6dfff88ac",
                "address": "12t32F2M4VqrfG4DX3WxBXCCxvgLp5W5rG",
                "type": "pubkeyhash"
            }
        }
    ],
    "hex": "0100000001b9ab0966edd4ebc6b26495019f25f028c88b6d133b9f264e5c0f46733d25d356000000008b483045022100e5edec9216094b32e1b0ee78519df8015f6c07ca443550eadb7fa182925b0b0f02202225490f00aedba378aa14867534ec1fe2d4120993b8a6cfed4eb2173eeb31c70141047ae6f922d8c356f80a0ef0e82adfb5848cc93fa0d0caf6adbdf1833a34baa62c1777b4b2ccd86516c126ba11978fbb9f8d6fe7720964637319c67322e80c37aaffffffff0240b46c17000000001976a9147f73d00ad053085c0a0f847d723a70c45492959888ac40f6eebb000000001976a914149f06f8180d53ebb4f6485c967222ac03f6dfff88ac00000000",
    "blockhash": "000000000000653a5397dd576c9a6c0bcc7f5480f32a4970d020c17a283a5bc4",
    "confirmations": 720530,
    "time": 1300294702,
    "blocktime": 1300294702
}