{
    "txid": "b502fdd3a26a8e44288bfcf06033185deb4552296987959f7594a1949229daf0",
    "details": {
        "txid": "b502fdd3a26a8e44288bfcf06033185deb4552296987959f7594a1949229daf0",
        "hash": "b502fdd3a26a8e44288bfcf06033185deb4552296987959f7594a1949229daf0",
        "version": 1,
        "size": 259,
        "vsize": 259,
        "weight": 1036,
        "locktime": 0,
        "vin": [
            {
                "txid": "f816f612c0a04236108555c7f1a375ee21d0aaf03a18592693d3c23147b5bcbe",
                "vout": 1,
                "scriptSig": {
                    "asm": "3046022100a0512c685e5c437f0defbaac2585245eb11d34e2fc0869db2efc04d7dd22773c022100c20a3c7257c20c54b7a62e52ff8ae6f401cadffc24f3639b65680732d9115bb0[ALL] 04909933b65d834f2188ac0150db09af1e0c6dca40c92ceba7531700a9df78e5cb0809873db73ee0cd423ddab7c457fd3b54361023a2571463a0406581a8e85e67",
                    "hex": "493046022100a0512c685e5c437f0defbaac2585245eb11d34e2fc0869db2efc04d7dd22773c022100c20a3c7257c20c54b7a62e52ff8ae6f401cadffc24f3639b65680732d9115bb0014104909933b65d834f2188ac0150db09af1e0c6dca40c92ceba7531700a9df78e5cb0809873db73ee0cd423ddab7c457fd3b54361023a2571463a0406581a8e85e67"
                },
                "sequence": 4294967295
            }
        ],
        "vout": [
            {
                "value": "15.13000002",
                "n": 0,
                "scriptPubKey": {
                    "asm": "OP_DUP OP_HASH160 4bfdd2c56cc9f15f00bdadab864bff1f3f287f98 OP_EQUALVERIFY OP_CHECKSIG",
                    "desc": "addr(17vokLnPdeHkvnJ78HsJjW6zdpZjxEUPax)#9gshd9gh",
                    "hex": "76a9144bfdd2c56cc9f15f00bdadab864bff1f3f287f9888ac",
                    "address": "17vokLnPdeHkvnJ78HsJjW6zdpZjxEUPax",
                    "type": "pubkeyhash"
                }
            },
            {
                "value": "0.05000000",
                "n": 1,
                "scriptPubKey": {
                    "asm": "OP_DUP OP_HASH160 7f73d00ad053085c0a0f847d723a70c454929598 OP_EQUALVERIFY OP_CHECKSIG",
                    "desc": "addr(1CcuZAiTqHUFzSVVJ2mjwEnDKjejm7edUm)#kndgxg5h",
                    "hex": "76a9147f73d00ad053085c0a0f847d723a70c45492959888ac",
                    "address": "1CcuZAiTqHUFzSVVJ2mjwEnDKjejm7edUm",
                    "type": "pubkeyhash"
                }
            }
        ],
        "hex": "0100000001bebcb54731c2d3932659183af0aad021ee75a3f1c75585103642a0c012f616f8010000008c493046022100a0512c685e5c437f0defbaac2585245eb11d34e2fc0869db2efc04d7dd22773c022100c20a3c7257c20c54b7a62e52ff8ae6f401cadffc24f3639b65680732d9115bb0014104909933b65d834f2188ac0150db09af1e0c6dca40c92ceba7531700a9df78e5cb0809873db73ee0cd423ddab7c457fd3b54361023a2571463a0406581a8e85e67ffffffff02428c2e5a000000001976a9144bfdd2c56cc9f15f00bdadab864bff1f3f287f9888ac404b4c00000000001976a9147f73d00ad053085c0a0f847d723a70c45492959888ac00000000",
        "blockhash": "0000000000002900eb47f752629926b17ca5ef564a2f4d8ceee6a7b2f4eab5b7",
        "confirmations": 722327,
        "time": 1299329782,
        "blocktime": 1299329782
    }
}