{
    "txid": "c43270270f9ec00a5a118cda63f0d84c4f19644143aab53cb70d1dd10e4976ed",
    "details": {
        "txid": "c43270270f9ec00a5a118cda63f0d84c4f19644143aab53cb70d1dd10e4976ed",
        "hash": "c43270270f9ec00a5a118cda63f0d84c4f19644143aab53cb70d1dd10e4976ed",
        "version": 1,
        "size": 258,
        "vsize": 258,
        "weight": 1032,
        "locktime": 0,
        "vin": [
            {
                "txid": "46968dab27ec4db8176dbfae9be9734e5f8ff7f5e43f23a9263e003eeabc69ef",
                "vout": 1,
                "scriptSig": {
                    "asm": "30450220421e30fd9d7d964a70a9ff80351477222334d7e4165b56a87d64ba1cd4719792022100fb9e912ee71d9d3b439569111541ce4da3b15ec96ec588a2cf24c1cad7e82ec7[ALL] 04fc4cc767c9a1a17e30e13cdf75f16298c9c1d28e8a5e4489021d0075e16df226ccdbf7ebbf0b79846873500a0153bc6a2bc2d43f11c06810c7e721697c4635a3",
                    "hex": "4830450220421e30fd9d7d964a70a9ff80351477222334d7e4165b56a87d64ba1cd4719792022100fb9e912ee71d9d3b439569111541ce4da3b15ec96ec588a2cf24c1cad7e82ec7014104fc4cc767c9a1a17e30e13cdf75f16298c9c1d28e8a5e4489021d0075e16df226ccdbf7ebbf0b79846873500a0153bc6a2bc2d43f11c06810c7e721697c4635a3"
                },
                "sequence": 4294967295
            }
        ],
        "vout": [
            {
                "value": "20.32000000",
                "n": 0,
                "scriptPubKey": {
                    "asm": "OP_DUP OP_HASH160 7f73d00ad053085c0a0f847d723a70c454929598 OP_EQUALVERIFY OP_CHECKSIG",
                    "desc": "addr(1CcuZAiTqHUFzSVVJ2mjwEnDKjejm7edUm)#kndgxg5h",
                    "hex": "76a9147f73d00ad053085c0a0f847d723a70c45492959888ac",
                    "address": "1CcuZAiTqHUFzSVVJ2mjwEnDKjejm7edUm",
                    "type": "pubkeyhash"
                }
            },
            {
                "value": "26.27000000",
                "n": 1,
                "scriptPubKey": {
                    "asm": "OP_DUP OP_HASH160 4f1040ca2418a473c6210247f440e6599c119b7b OP_EQUALVERIFY OP_CHECKSIG",
                    "desc": "addr(18D3rSSoxtK5MV6Ch4kpM1ew9gZPDtwgLg)#p9jkzeyf",
                    "hex": "76a9144f1040ca2418a473c6210247f440e6599c119b7b88ac",
                    "address": "18D3rSSoxtK5MV6Ch4kpM1ew9gZPDtwgLg",
                    "type": "pubkeyhash"
                }
            }
        ],
        "hex": "0100000001ef69bcea3e003e26a9233fe4f5f78f5f4e73e99baebf6d17b84dec27ab8d9646010000008b4830450220421e30fd9d7d964a70a9ff80351477222334d7e4165b56a87d64ba1cd4719792022100fb9e912ee71d9d3b439569111541ce4da3b15ec96ec588a2cf24c1cad7e82ec7014104fc4cc767c9a1a17e30e13cdf75f16298c9c1d28e8a5e4489021d0075e16df226ccdbf7ebbf0b79846873500a0153bc6a2bc2d43f11c06810c7e721697c4635a3ffffffff0200dc1d79000000001976a9147f73d00ad053085c0a0f847d723a70c45492959888acc0d6949c000000001976a9144f1040ca2418a473c6210247f440e6599c119b7b88ac00000000",
        "blockhash": "000000000000936c81fa6a3dd0ed5412f0d20fcfd1801d1d65795b08bb65c181",
        "confirmations": 718815,
        "time": 1301340789,
        "blocktime": 1301340789
    }
}