{
    "txid": "e8652440eb4d5907d0621563cc49a95bd48195f8a4ea9fea6fcda3b7fd993737",
    "details": {
        "txid": "e8652440eb4d5907d0621563cc49a95bd48195f8a4ea9fea6fcda3b7fd993737",
        "hash": "e8652440eb4d5907d0621563cc49a95bd48195f8a4ea9fea6fcda3b7fd993737",
        "version": 1,
        "size": 258,
        "vsize": 258,
        "weight": 1032,
        "locktime": 0,
        "vin": [
            {
                "txid": "b9e4acb5660fc9fc73721188d94b4aa2922771ab65c9443e539752c2af2d4527",
                "vout": 0,
                "scriptSig": {
                    "asm": "3045022100c23765dfd8f3b1cbbd7c6c7990b7741da0bf353f5ce1779cb8ec80c918ef79af0220577457a757c59884ba49b719f8a06647120f69561830612a00e26dfd256e5ea2[ALL] 0449b345df263203026fc986feee5e1f2d7b075f54f738ed3a4821cc6ad0a85fb6e5bca53c0aa113e5b7c82f0ba647cf4964742fa05b00063f37c0b0f26f6e616f",
                    "hex": "483045022100c23765dfd8f3b1cbbd7c6c7990b7741da0bf353f5ce1779cb8ec80c918ef79af0220577457a757c59884ba49b719f8a06647120f69561830612a00e26dfd256e5ea201410449b345df263203026fc986feee5e1f2d7b075f54f738ed3a4821cc6ad0a85fb6e5bca53c0aa113e5b7c82f0ba647cf4964742fa05b00063f37c0b0f26f6e616f"
                },
                "sequence": 4294967295
            }
        ],
        "vout": [
            {
                "value": "1109.56000000",
                "n": 0,
                "scriptPubKey": {
                    "asm": "OP_DUP OP_HASH160 63de6b01f9ba499cd700c14226ddfc2caa092b65 OP_EQUALVERIFY OP_CHECKSIG",
                    "desc": "addr(1A74Ls9rCxFi9od7H529QoQy3dztQftWnF)#5uah08hl",
                    "hex": "76a91463de6b01f9ba499cd700c14226ddfc2caa092b6588ac",
                    "address": "1A74Ls9rCxFi9od7H529QoQy3dztQftWnF",
                    "type": "pubkeyhash"
                }
            },
            {
                "value": "0.79000000",
                "n": 1,
                "scriptPubKey": {
                    "asm": "OP_DUP OP_HASH160 7f73d00ad053085c0a0f847d723a70c454929598 OP_EQUALVERIFY OP_CHECKSIG",
                    "desc": "addr(1CcuZAiTqHUFzSVVJ2mjwEnDKjejm7edUm)#kndgxg5h",
                    "hex": "76a9147f73d00ad053085c0a0f847d723a70c45492959888ac",
                    "address": "1CcuZAiTqHUFzSVVJ2mjwEnDKjejm7edUm",
                    "type": "pubkeyhash"
                }
            }
        ],
        "hex": "010000000127452dafc25297533e44c965ab712792a24a4bd988117273fcc90f66b5ace4b9000000008b483045022100c23765dfd8f3b1cbbd7c6c7990b7741da0bf353f5ce1779cb8ec80c918ef79af0220577457a757c59884ba49b719f8a06647120f69561830612a00e26dfd256e5ea201410449b345df263203026fc986feee5e1f2d7b075f54f738ed3a4821cc6ad0a85fb6e5bca53c0aa113e5b7c82f0ba647cf4964742fa05b00063f37c0b0f26f6e616fffffffff0200337ed5190000001976a91463de6b01f9ba499cd700c14226ddfc2caa092b6588acc071b504000000001976a9147f73d00ad053085c0a0f847d723a70c45492959888ac00000000",
        "blockhash": "000000000000141cd081ff8a519e2b5818ee6bd43811a00ccf0666a63797cef4",
        "confirmations": 721420,
        "time": 1299678284,
        "blocktime": 1299678284
    }
}