{
    "txid": "eb5b761c7380ed4c6adf688f9e5ab94953dcabeda47d9eeabd77261902fccccf",
    "hash": "eb5b761c7380ed4c6adf688f9e5ab94953dcabeda47d9eeabd77261902fccccf",
    "version": 1,
    "size": 258,
    "vsize": 258,
    "weight": 1032,
    "locktime": 0,
    "vin": [
        {
            "txid": "754640b644a9e5b37be661eb68667da366c76b00064a5d0f7beaef13b98eda8b",
            "vout": 0,
            "scriptSig": {
                "asm": "3045022100f2787382ee317b6707be77ef2221ec6d79522550ad9dc5b9c7b210cd613f8881022050d19b3e01f2d238bb0cc68c3a532c692304efc1bfc0890dbd32bda13a5ded53[ALL] 04bcbaa3c062797383a68181d08bc1a4d9d5fc91cdd3237777a63f71be676b2a9e9948a04c7fcd58074267fbe7e70091cdec244c5e1f00e4a9ac3296ca82c02d42",
                "hex": "483045022100f2787382ee317b6707be77ef2221ec6d79522550ad9dc5b9c7b210cd613f8881022050d19b3e01f2d238bb0cc68c3a532c692304efc1bfc0890dbd32bda13a5ded53014104bcbaa3c062797383a68181d08bc1a4d9d5fc91cdd3237777a63f71be676b2a9e9948a04c7fcd58074267fbe7e70091cdec244c5e1f00e4a9ac3296ca82c02d42"
            },
            "sequence": 4294967295
        }
    ],
    "vout": [
        {
            "value": "1.00000000",
            "n": 0,
            "scriptPubKey": {
                "asm": "OP_DUP OP_HASH160 2d15f5949090c5b2b7bafdb8bdaec6ec03a28e7a OP_EQUALVERIFY OP_CHECKSIG",
                "desc": "addr(157PiPgqphedUvrco3mKU3Xoof7yzhj9pW)#mxedh08t",
                "hex": "76a9142d15f5949090c5b2b7bafdb8bdaec6ec03a28e7a88ac",
                "address": "157PiPgqphedUvrco3mKU3Xoof7yzhj9pW",
                "type": "pubkeyhash"
            }
        },
        {
            "value": "8999.00000000",
            "n": 1,
            "scriptPubKey": {
                "asm": "OP_DUP OP_HASH160 381642c97cbdcf66aa4b2d13f7e31468ef9c7437 OP_EQUALVERIFY OP_CHECKSIG",
                "desc": "addr(167ZWTT8n6s4ya8cGjqNNQjDwDGY31vmHg)#enfdhly2",
                "hex": "76a914381642c97cbdcf66aa4b2d13f7e31468ef9c743788ac",
                "address": "167ZWTT8n6s4ya8cGjqNNQjDwDGY31vmHg",
                "type": "pubkeyhash"
            }
        }
    ],
    "hex": "01000000018bda8eb913efea7b0f5d4a06006bc766a37d6668eb61e67bb3e5a944b6404675000000008b483045022100f2787382ee317b6707be77ef2221ec6d79522550ad9dc5b9c7b210cd613f8881022050d19b3e01f2d238bb0cc68c3a532c692304efc1bfc0890dbd32bda13a5ded53014104bcbaa3c062797383a68181d08bc1a4d9d5fc91cdd3237777a63f71be676b2a9e9948a04c7fcd58074267fbe7e70091cdec244c5e1f00e4a9ac3296ca82c02d42ffffffff0200e1f505000000001976a9142d15f5949090c5b2b7bafdb8bdaec6ec03a28e7a88ac00473886d10000001976a914381642c97cbdcf66aa4b2d13f7e31468ef9c743788ac00000000",
    "blockhash": "00000000006aba8ba340b7ae875b0b1be1af394b4a26103fd53c75a1b7b705b2",
    "confirmations": 761035,
    "time": 1281389711,
    "blocktime": 1281389711
}